{
  "_format": "hh-sol-artifact-1",
  "contractName": "Escrow",
  "sourceName": "contracts/Escrow.sol",
  "abi": [
    {
      "inputs": [],
      "stateMutability": "nonpayable",
      "type": "constructor"
    },
    {
      "inputs": [
        {
          "internalType": "address",
          "name": "payee",
          "type": "address"
        }
      ],
      "name": "deposit",
      "outputs": [],
      "stateMutability": "payable",
      "type": "function"
    },
    {
      "inputs": [
        {
          "internalType": "address",
          "name": "",
          "type": "address"
        }
      ],
      "name": "deposits",
      "outputs": [
        {
          "internalType": "uint256",
          "name": "",
          "type": "uint256"
        }
      ],
      "stateMutability": "view",
      "type": "function"
    },
    {
      "inputs": [
        {
          "internalType": "address payable",
          "name": "payee",
          "type": "address"
        }
      ],
      "name": "withdraw",
      "outputs": [],
      "stateMutability": "nonpayable",
      "type": "function"
    }
  ],
  "bytecode": "0x608060405234801561001057600080fd5b50600080546001600160a01b03191633179055610209806100326000396000f3fe6080604052600436106100345760003560e01c806351cff8d914610039578063f340fa011461005b578063fc7e286d1461006e575b600080fd5b34801561004557600080fd5b50610059610054366004610188565b6100ad565b005b610059610069366004610188565b610113565b34801561007a57600080fd5b5061009b610089366004610188565b60016020526000908152604090205481565b60405190815260200160405180910390f35b6000546001600160a01b031633146100c457600080fd5b6001600160a01b038116600081815260016020526040808220805490839055905190929183156108fc02918491818181858888f1935050505015801561010e573d6000803e3d6000fd5b505050565b6000546001600160a01b0316331461012a57600080fd5b6001600160a01b03811660009081526001602052604090205434906101509082906101ac565b6001600160a01b0390921660009081526001602052604090209190915550565b6001600160a01b038116811461018557600080fd5b50565b60006020828403121561019a57600080fd5b81356101a581610170565b9392505050565b808201808211156101cd57634e487b7160e01b600052601160045260246000fd5b9291505056fea26469706673582212202bb59d19650635026b5d77f9196975fd25e9a36b64b2cae4df3845dba76e070364736f6c63430008130033",
  "linkReferences": {},
  "deployedLinkReferences": {}
}